{
  "_format": "hh-sol-artifact-1",
  "contractName": "NFTreeFactory",
  "sourceName": "contracts/NFTreeFactory.sol",
  "abi": [
    {
      "inputs": [
        {
          "internalType": "address",
          "name": "_nftreeAddress",
          "type": "address"
        },
        {
          "internalType": "address",
          "name": "_treasuryAddress",
          "type": "address"
        }
      ],
      "stateMutability": "nonpayable",
      "type": "constructor"
    },
    {
      "anonymous": false,
      "inputs": [
        {
          "indexed": true,
          "internalType": "address",
          "name": "previousOwner",
          "type": "address"
        },
        {
          "indexed": true,
          "internalType": "address",
          "name": "newOwner",
          "type": "address"
        }
      ],
      "name": "OwnershipTransferred",
      "type": "event"
    },
    {
      "inputs": [
        {
          "internalType": "string",
          "name": "_coin",
          "type": "string"
        },
        {
          "internalType": "address",
          "name": "_address",
          "type": "address"
        }
      ],
      "name": "addCoin",
      "outputs": [],
      "stateMutability": "nonpayable",
      "type": "function"
    },
    {
      "inputs": [
        {
          "internalType": "uint256",
          "name": "_level",
          "type": "uint256"
        },
        {
          "internalType": "uint256",
          "name": "_trees",
          "type": "uint256"
        },
        {
          "internalType": "uint256",
          "name": "_cost",
          "type": "uint256"
        },
        {
          "internalType": "string",
          "name": "_tokenURI",
          "type": "string"
        }
      ],
      "name": "addLevel",
      "outputs": [],
      "stateMutability": "nonpayable",
      "type": "function"
    },
    {
      "inputs": [
        {
          "internalType": "uint256",
          "name": "_level",
          "type": "uint256"
        }
      ],
      "name": "getLevel",
      "outputs": [
        {
          "internalType": "uint256",
          "name": "",
          "type": "uint256"
        },
        {
          "internalType": "uint256",
          "name": "",
          "type": "uint256"
        },
        {
          "internalType": "uint256",
          "name": "",
          "type": "uint256"
        },
        {
          "internalType": "uint256",
          "name": "",
          "type": "uint256"
        },
        {
          "internalType": "string",
          "name": "",
          "type": "string"
        }
      ],
      "stateMutability": "view",
      "type": "function"
    },
    {
      "inputs": [],
      "name": "getNFTreeContract",
      "outputs": [
        {
          "internalType": "contract INFTree",
          "name": "",
          "type": "address"
        }
      ],
      "stateMutability": "view",
      "type": "function"
    },
    {
      "inputs": [],
      "name": "getTreasury",
      "outputs": [
        {
          "internalType": "address",
          "name": "",
          "type": "address"
        }
      ],
      "stateMutability": "view",
      "type": "function"
    },
    {
      "inputs": [],
      "name": "getValidCoins",
      "outputs": [
        {
          "internalType": "string[]",
          "name": "",
          "type": "string[]"
        }
      ],
      "stateMutability": "view",
      "type": "function"
    },
    {
      "inputs": [],
      "name": "getValidLevels",
      "outputs": [
        {
          "internalType": "uint256[]",
          "name": "",
          "type": "uint256[]"
        }
      ],
      "stateMutability": "view",
      "type": "function"
    },
    {
      "inputs": [
        {
          "internalType": "uint256",
          "name": "_tonnes",
          "type": "uint256"
        },
        {
          "internalType": "uint256",
          "name": "_amount",
          "type": "uint256"
        },
        {
          "internalType": "string",
          "name": "_coin",
          "type": "string"
        }
      ],
      "name": "mintNFTree",
      "outputs": [],
      "stateMutability": "nonpayable",
      "type": "function"
    },
    {
      "inputs": [],
      "name": "owner",
      "outputs": [
        {
          "internalType": "address",
          "name": "",
          "type": "address"
        }
      ],
      "stateMutability": "view",
      "type": "function"
    },
    {
      "inputs": [
        {
          "internalType": "string",
          "name": "_coin",
          "type": "string"
        }
      ],
      "name": "removeCoin",
      "outputs": [],
      "stateMutability": "nonpayable",
      "type": "function"
    },
    {
      "inputs": [
        {
          "internalType": "uint256",
          "name": "_level",
          "type": "uint256"
        }
      ],
      "name": "removeLevel",
      "outputs": [],
      "stateMutability": "nonpayable",
      "type": "function"
    },
    {
      "inputs": [],
      "name": "renounceOwnership",
      "outputs": [],
      "stateMutability": "nonpayable",
      "type": "function"
    },
    {
      "inputs": [
        {
          "internalType": "address",
          "name": "_nftreeAddress",
          "type": "address"
        }
      ],
      "name": "setNFTreeContract",
      "outputs": [],
      "stateMutability": "nonpayable",
      "type": "function"
    },
    {
      "inputs": [
        {
          "internalType": "address",
          "name": "_address",
          "type": "address"
        }
      ],
      "name": "setTreasury",
      "outputs": [],
      "stateMutability": "nonpayable",
      "type": "function"
    },
    {
      "inputs": [
        {
          "internalType": "address",
          "name": "newOwner",
          "type": "address"
        }
      ],
      "name": "transferOwnership",
      "outputs": [],
      "stateMutability": "nonpayable",
      "type": "function"
    }
  ],
  "bytecode": "0x60806040523480156200001157600080fd5b5060405162002e8938038062002e898339818101604052810190620000379190620001c4565b620000576200004b620000e160201b60201c565b620000e960201b60201c565b81600160006101000a81548173ffffffffffffffffffffffffffffffffffffffff021916908373ffffffffffffffffffffffffffffffffffffffff16021790555080600260006101000a81548173ffffffffffffffffffffffffffffffffffffffff021916908373ffffffffffffffffffffffffffffffffffffffff160217905550505062000253565b600033905090565b60008060009054906101000a900473ffffffffffffffffffffffffffffffffffffffff169050816000806101000a81548173ffffffffffffffffffffffffffffffffffffffff021916908373ffffffffffffffffffffffffffffffffffffffff1602179055508173ffffffffffffffffffffffffffffffffffffffff168173ffffffffffffffffffffffffffffffffffffffff167f8be0079c531659141344cd1fd0a4f28419497f9722a3daafe3b4186f6b6457e060405160405180910390a35050565b600081519050620001be8162000239565b92915050565b60008060408385031215620001d857600080fd5b6000620001e885828601620001ad565b9250506020620001fb85828601620001ad565b9150509250929050565b6000620002128262000219565b9050919050565b600073ffffffffffffffffffffffffffffffffffffffff82169050919050565b620002448162000205565b81146200025057600080fd5b50565b612c2680620002636000396000f3fe608060405234801561001057600080fd5b50600436106100f55760003560e01c80638da5cb5b11610097578063da4bf63911610066578063da4bf6391461023a578063f0f4426014610258578063f2fde38b14610274578063fc7a746114610290576100f5565b80638da5cb5b146101c85780639a4c4517146101e6578063a52be41014610202578063c392079f1461021e576100f5565b8063715018a6116100d3578063715018a61461015257806371b7270c1461015c5780637c23d1cb1461017857806386481d4014610194576100f5565b80631d5f671d146100fa5780632ff78016146101185780633b19e84a14610134575b600080fd5b6101026102ae565b60405161010f9190612423565b60405180910390f35b610132600480360381019061012d9190611def565b61030e565b005b61013c6108db565b604051610149919061233a565b60405180910390f35b61015a610981565b005b61017660048036038101906101719190611d49565b610a09565b005b610192600480360381019061018d9190611d9d565b610bea565b005b6101ae60048036038101906101a99190611d9d565b610e8c565b6040516101bf9594939291906125a0565b60405180910390f35b6101d0611008565b6040516101dd919061233a565b60405180910390f35b61020060048036038101906101fb9190611e56565b611031565b005b61021c60048036038101906102179190611cb6565b6111b1565b005b61023860048036038101906102339190611d08565b6111f5565b005b61024261150a565b60405161024f9190612401565b60405180910390f35b610272600480360381019061026d9190611cb6565b6115e3565b005b61028e60048036038101906102899190611cb6565b6116a3565b005b61029861179b565b6040516102a59190612445565b60405180910390f35b606061030960038054806020026020016040519081016040528092919081815260200182805480156102ff57602002820191906000526020600020905b8154815260200190600101908083116102eb575b50505050506117c5565b905090565b600073ffffffffffffffffffffffffffffffffffffffff163373ffffffffffffffffffffffffffffffffffffffff161415801561037757503073ffffffffffffffffffffffffffffffffffffffff163373ffffffffffffffffffffffffffffffffffffffff1614155b6103b6576040517f08c379a00000000000000000000000000000000000000000000000000000000081526004016103ad90612500565b60405180910390fd5b6005600084815260200190815260200160002060000160009054906101000a900460ff16610419576040517f08c379a000000000000000000000000000000000000000000000000000000000815260040161041090612540565b60405180910390fd5b600681604051610429919061230c565b908152602001604051809103902060000160009054906101000a900460ff16610487576040517f08c379a000000000000000000000000000000000000000000000000000000000815260040161047e906124e0565b60405180910390fd5b60056000848152602001908152602001600020600101548210156104e0576040517f08c379a00000000000000000000000000000000000000000000000000000000081526004016104d7906124a0565b60405180910390fd5b816006826040516104f1919061230c565b908152602001604051809103902060000160019054906101000a900473ffffffffffffffffffffffffffffffffffffffff1673ffffffffffffffffffffffffffffffffffffffff166370a08231336040518263ffffffff1660e01b815260040161055b919061233a565b60206040518083038186803b15801561057357600080fd5b505afa158015610587573d6000803e3d6000fd5b505050506040513d601f19601f820116820180604052508101906105ab9190611dc6565b10156105ec576040517f08c379a00000000000000000000000000000000000000000000000000000000081526004016105e390612560565b60405180910390fd5b816006826040516105fd919061230c565b908152602001604051809103902060000160019054906101000a900473ffffffffffffffffffffffffffffffffffffffff1673ffffffffffffffffffffffffffffffffffffffff1663dd62ed3e33306040518363ffffffff1660e01b8152600401610669929190612355565b60206040518083038186803b15801561068157600080fd5b505afa158015610695573d6000803e3d6000fd5b505050506040513d601f19601f820116820180604052508101906106b99190611dc6565b10156106fa576040517f08c379a00000000000000000000000000000000000000000000000000000000081526004016106f190612580565b60405180910390fd5b60068160405161070a919061230c565b908152602001604051809103902060000160019054906101000a900473ffffffffffffffffffffffffffffffffffffffff1673ffffffffffffffffffffffffffffffffffffffff166323b872dd33600260009054906101000a900473ffffffffffffffffffffffffffffffffffffffff16670de0b6b3a76400008661078f9190612765565b6040518463ffffffff1660e01b81526004016107ad9392919061237e565b602060405180830381600087803b1580156107c757600080fd5b505af11580156107db573d6000803e3d6000fd5b505050506040513d601f19601f820116820180604052508101906107ff9190611cdf565b50600160009054906101000a900473ffffffffffffffffffffffffffffffffffffffff1673ffffffffffffffffffffffffffffffffffffffff16635bb60f08336005600087815260200190815260200160002060050186876040518563ffffffff1660e01b815260040161087694939291906123b5565b600060405180830381600087803b15801561089057600080fd5b505af11580156108a4573d6000803e3d6000fd5b5050505060016005600085815260200190815260200160002060040160008282546108cf919061270f565b92505081905550505050565b60006108e56119be565b73ffffffffffffffffffffffffffffffffffffffff16610903611008565b73ffffffffffffffffffffffffffffffffffffffff1614610959576040517f08c379a000000000000000000000000000000000000000000000000000000000815260040161095090612520565b60405180910390fd5b600260009054906101000a900473ffffffffffffffffffffffffffffffffffffffff16905090565b6109896119be565b73ffffffffffffffffffffffffffffffffffffffff166109a7611008565b73ffffffffffffffffffffffffffffffffffffffff16146109fd576040517f08c379a00000000000000000000000000000000000000000000000000000000081526004016109f490612520565b60405180910390fd5b610a0760006119c6565b565b610a116119be565b73ffffffffffffffffffffffffffffffffffffffff16610a2f611008565b73ffffffffffffffffffffffffffffffffffffffff1614610a85576040517f08c379a0000000000000000000000000000000000000000000000000000000008152600401610a7c90612520565b60405180910390fd5b600682604051610a95919061230c565b908152602001604051809103902060000160009054906101000a900460ff1615610af4576040517f08c379a0000000000000000000000000000000000000000000000000000000008152600401610aeb906124c0565b60405180910390fd5b600482908060018154018082558091505060019003906000526020600020016000909190919091509080519060200190610b2f929190611a8a565b5060405180604001604052806001151581526020018273ffffffffffffffffffffffffffffffffffffffff16815250600683604051610b6e919061230c565b908152602001604051809103902060008201518160000160006101000a81548160ff02191690831515021790555060208201518160000160016101000a81548173ffffffffffffffffffffffffffffffffffffffff021916908373ffffffffffffffffffffffffffffffffffffffff1602179055509050505050565b610bf26119be565b73ffffffffffffffffffffffffffffffffffffffff16610c10611008565b73ffffffffffffffffffffffffffffffffffffffff1614610c66576040517f08c379a0000000000000000000000000000000000000000000000000000000008152600401610c5d90612520565b60405180910390fd5b6005600082815260200190815260200160002060000160009054906101000a900460ff16610cc9576040517f08c379a0000000000000000000000000000000000000000000000000000000008152600401610cc090612540565b60405180910390fd5b600080600090505b600380549050811015610d41578260038281548110610d19577f4e487b7100000000000000000000000000000000000000000000000000000000600052603260045260246000fd5b90600052602060002001541415610d2e578091505b8080610d3990612904565b915050610cd1565b5060036001600380549050610d5691906127bf565b81548110610d8d577f4e487b7100000000000000000000000000000000000000000000000000000000600052603260045260246000fd5b906000526020600020015460038281548110610dd2577f4e487b7100000000000000000000000000000000000000000000000000000000600052603260045260246000fd5b90600052602060002001819055506003805480610e18577f4e487b7100000000000000000000000000000000000000000000000000000000600052603160045260246000fd5b6001900381819060005260206000200160009055905560056000838152602001908152602001600020600080820160006101000a81549060ff02191690556001820160009055600282016000905560038201600090556004820160009055600582016000610e869190611b10565b50505050565b60008060008060606005600087815260200190815260200160002060000160009054906101000a900460ff16610ef7576040517f08c379a0000000000000000000000000000000000000000000000000000000008152600401610eee90612480565b60405180910390fd5b600560008781526020019081526020016000206002015460056000888152602001908152602001600020600301546005600089815260200190815260200160002060010154600560008a815260200190815260200160002060040154600560008b8152602001908152602001600020600501808054610f75906128a1565b80601f0160208091040260200160405190810160405280929190818152602001828054610fa1906128a1565b8015610fee5780601f10610fc357610100808354040283529160200191610fee565b820191906000526020600020905b815481529060010190602001808311610fd157829003601f168201915b505050505090509450945094509450945091939590929450565b60008060009054906101000a900473ffffffffffffffffffffffffffffffffffffffff16905090565b6110396119be565b73ffffffffffffffffffffffffffffffffffffffff16611057611008565b73ffffffffffffffffffffffffffffffffffffffff16146110ad576040517f08c379a00000000000000000000000000000000000000000000000000000000081526004016110a490612520565b60405180910390fd5b6005600085815260200190815260200160002060000160009054906101000a900460ff166110ff5760038490806001815401808255809150506001900390600052602060002001600090919091909150555b6040518060c0016040528060011515815260200183815260200185815260200184815260200160008152602001828152506005600086815260200190815260200160002060008201518160000160006101000a81548160ff0219169083151502179055506020820151816001015560408201518160020155606082015181600301556080820151816004015560a08201518160050190805190602001906111a7929190611a8a565b5090505050505050565b80600160006101000a81548173ffffffffffffffffffffffffffffffffffffffff021916908373ffffffffffffffffffffffffffffffffffffffff16021790555050565b6111fd6119be565b73ffffffffffffffffffffffffffffffffffffffff1661121b611008565b73ffffffffffffffffffffffffffffffffffffffff1614611271576040517f08c379a000000000000000000000000000000000000000000000000000000000815260040161126890612520565b60405180910390fd5b600681604051611281919061230c565b908152602001604051809103902060000160009054906101000a900460ff166112df576040517f08c379a00000000000000000000000000000000000000000000000000000000081526004016112d6906124e0565b60405180910390fd5b600080600090505b6004805490508110156113a25782604051602001611305919061230c565b6040516020818303038152906040528051906020012060048281548110611355577f4e487b7100000000000000000000000000000000000000000000000000000000600052603260045260246000fd5b9060005260206000200160405160200161136f9190612323565b60405160208183030381529060405280519060200120141561138f578091505b808061139a90612904565b9150506112e7565b50600460016004805490506113b791906127bf565b815481106113ee577f4e487b7100000000000000000000000000000000000000000000000000000000600052603260045260246000fd5b9060005260206000200160048281548110611432577f4e487b7100000000000000000000000000000000000000000000000000000000600052603260045260246000fd5b90600052602060002001908054611448906128a1565b611453929190611b50565b50600480548061148c577f4e487b7100000000000000000000000000000000000000000000000000000000600052603160045260246000fd5b6001900381819060005260206000200160006114a89190611b10565b90556006826040516114ba919061230c565b9081526020016040518091039020600080820160006101000a81549060ff02191690556000820160016101000a81549073ffffffffffffffffffffffffffffffffffffffff021916905550505050565b60606004805480602002602001604051908101604052809291908181526020016000905b828210156115da57838290600052602060002001805461154d906128a1565b80601f0160208091040260200160405190810160405280929190818152602001828054611579906128a1565b80156115c65780601f1061159b576101008083540402835291602001916115c6565b820191906000526020600020905b8154815290600101906020018083116115a957829003601f168201915b50505050508152602001906001019061152e565b50505050905090565b6115eb6119be565b73ffffffffffffffffffffffffffffffffffffffff16611609611008565b73ffffffffffffffffffffffffffffffffffffffff161461165f576040517f08c379a000000000000000000000000000000000000000000000000000000000815260040161165690612520565b60405180910390fd5b80600260006101000a81548173ffffffffffffffffffffffffffffffffffffffff021916908373ffffffffffffffffffffffffffffffffffffffff16021790555050565b6116ab6119be565b73ffffffffffffffffffffffffffffffffffffffff166116c9611008565b73ffffffffffffffffffffffffffffffffffffffff161461171f576040517f08c379a000000000000000000000000000000000000000000000000000000000815260040161171690612520565b60405180910390fd5b600073ffffffffffffffffffffffffffffffffffffffff168173ffffffffffffffffffffffffffffffffffffffff16141561178f576040517f08c379a000000000000000000000000000000000000000000000000000000000815260040161178690612460565b60405180910390fd5b611798816119c6565b50565b6000600160009054906101000a900473ffffffffffffffffffffffffffffffffffffffff16905090565b606060008251905060005b818110156119b45760006001826117e7919061270f565b90505b828110156119a05784818151811061182b577f4e487b7100000000000000000000000000000000000000000000000000000000600052603260045260246000fd5b602002602001015185838151811061186c577f4e487b7100000000000000000000000000000000000000000000000000000000600052603260045260246000fd5b6020026020010151111561198d5760008583815181106118b5577f4e487b7100000000000000000000000000000000000000000000000000000000600052603260045260246000fd5b602002602001015190508582815181106118f8577f4e487b7100000000000000000000000000000000000000000000000000000000600052603260045260246000fd5b6020026020010151868481518110611939577f4e487b7100000000000000000000000000000000000000000000000000000000600052603260045260246000fd5b6020026020010181815250508086838151811061197f577f4e487b7100000000000000000000000000000000000000000000000000000000600052603260045260246000fd5b602002602001018181525050505b808061199890612904565b9150506117ea565b5080806119ac90612904565b9150506117d0565b5082915050919050565b600033905090565b60008060009054906101000a900473ffffffffffffffffffffffffffffffffffffffff169050816000806101000a81548173ffffffffffffffffffffffffffffffffffffffff021916908373ffffffffffffffffffffffffffffffffffffffff1602179055508173ffffffffffffffffffffffffffffffffffffffff168173ffffffffffffffffffffffffffffffffffffffff167f8be0079c531659141344cd1fd0a4f28419497f9722a3daafe3b4186f6b6457e060405160405180910390a35050565b828054611a96906128a1565b90600052602060002090601f016020900481019282611ab85760008555611aff565b82601f10611ad157805160ff1916838001178555611aff565b82800160010185558215611aff579182015b82811115611afe578251825591602001919060010190611ae3565b5b509050611b0c9190611bdd565b5090565b508054611b1c906128a1565b6000825580601f10611b2e5750611b4d565b601f016020900490600052602060002090810190611b4c9190611bdd565b5b50565b828054611b5c906128a1565b90600052602060002090601f016020900481019282611b7e5760008555611bcc565b82601f10611b8f5780548555611bcc565b82800160010185558215611bcc57600052602060002091601f016020900482015b82811115611bcb578254825591600101919060010190611bb0565b5b509050611bd99190611bdd565b5090565b5b80821115611bf6576000816000905550600101611bde565b5090565b6000611c0d611c088461261f565b6125fa565b905082815260208101848484011115611c2557600080fd5b611c3084828561285f565b509392505050565b600081359050611c4781612bab565b92915050565b600081519050611c5c81612bc2565b92915050565b600082601f830112611c7357600080fd5b8135611c83848260208601611bfa565b91505092915050565b600081359050611c9b81612bd9565b92915050565b600081519050611cb081612bd9565b92915050565b600060208284031215611cc857600080fd5b6000611cd684828501611c38565b91505092915050565b600060208284031215611cf157600080fd5b6000611cff84828501611c4d565b91505092915050565b600060208284031215611d1a57600080fd5b600082013567ffffffffffffffff811115611d3457600080fd5b611d4084828501611c62565b91505092915050565b60008060408385031215611d5c57600080fd5b600083013567ffffffffffffffff811115611d7657600080fd5b611d8285828601611c62565b9250506020611d9385828601611c38565b9150509250929050565b600060208284031215611daf57600080fd5b6000611dbd84828501611c8c565b91505092915050565b600060208284031215611dd857600080fd5b6000611de684828501611ca1565b91505092915050565b600080600060608486031215611e0457600080fd5b6000611e1286828701611c8c565b9350506020611e2386828701611c8c565b925050604084013567ffffffffffffffff811115611e4057600080fd5b611e4c86828701611c62565b9150509250925092565b60008060008060808587031215611e6c57600080fd5b6000611e7a87828801611c8c565b9450506020611e8b87828801611c8c565b9350506040611e9c87828801611c8c565b925050606085013567ffffffffffffffff811115611eb957600080fd5b611ec587828801611c62565b91505092959194509250565b6000611edd8383611fee565b905092915050565b6000611ef183836122ee565b60208301905092915050565b611f06816127f3565b82525050565b6000611f1782612685565b611f2181856126c0565b935083602082028501611f3385612650565b8060005b85811015611f6f5784840389528151611f508582611ed1565b9450611f5b836126a6565b925060208a01995050600181019050611f37565b50829750879550505050505092915050565b6000611f8c82612690565b611f9681856126d1565b9350611fa183612660565b8060005b83811015611fd2578151611fb98882611ee5565b9750611fc4836126b3565b925050600181019050611fa5565b5085935050505092915050565b611fe88161283b565b82525050565b6000611ff98261269b565b61200381856126e2565b935061201381856020860161286e565b61201c816129da565b840191505092915050565b60006120328261269b565b61203c81856126f3565b935061204c81856020860161286e565b612055816129da565b840191505092915050565b600061206b8261269b565b6120758185612704565b935061208581856020860161286e565b80840191505092915050565b6000815461209e816128a1565b6120a881866126f3565b945060018216600081146120c357600181146120d557612108565b60ff1983168652602086019350612108565b6120de85612670565b60005b83811015612100578154818901526001820191506020810190506120e1565b808801955050505b50505092915050565b6000815461211e816128a1565b6121288186612704565b94506001821660008114612143576001811461215457612187565b60ff19831686528186019350612187565b61215d85612670565b60005b8381101561217f57815481890152600182019150602081019050612160565b838801955050505b50505092915050565b600061219d6026836126f3565b91506121a8826129eb565b604082019050919050565b60006121c06011836126f3565b91506121cb82612a3a565b602082019050919050565b60006121e36011836126f3565b91506121ee82612a63565b602082019050919050565b60006122066015836126f3565b915061221182612a8c565b602082019050919050565b60006122296011836126f3565b915061223482612ab5565b602082019050919050565b600061224c601a836126f3565b915061225782612ade565b602082019050919050565b600061226f6020836126f3565b915061227a82612b07565b602082019050919050565b60006122926012836126f3565b915061229d82612b30565b602082019050919050565b60006122b56013836126f3565b91506122c082612b59565b602082019050919050565b60006122d86015836126f3565b91506122e382612b82565b602082019050919050565b6122f781612831565b82525050565b61230681612831565b82525050565b60006123188284612060565b915081905092915050565b600061232f8284612111565b915081905092915050565b600060208201905061234f6000830184611efd565b92915050565b600060408201905061236a6000830185611efd565b6123776020830184611efd565b9392505050565b60006060820190506123936000830186611efd565b6123a06020830185611efd565b6123ad60408301846122fd565b949350505050565b60006080820190506123ca6000830187611efd565b81810360208301526123dc8186612091565b90506123eb60408301856122fd565b6123f860608301846122fd565b95945050505050565b6000602082019050818103600083015261241b8184611f0c565b905092915050565b6000602082019050818103600083015261243d8184611f81565b905092915050565b600060208201905061245a6000830184611fdf565b92915050565b6000602082019050818103600083015261247981612190565b9050919050565b60006020820190508181036000830152612499816121b3565b9050919050565b600060208201905081810360008301526124b9816121d6565b9050919050565b600060208201905081810360008301526124d9816121f9565b9050919050565b600060208201905081810360008301526124f98161221c565b9050919050565b600060208201905081810360008301526125198161223f565b9050919050565b6000602082019050818103600083015261253981612262565b9050919050565b6000602082019050818103600083015261255981612285565b9050919050565b60006020820190508181036000830152612579816122a8565b9050919050565b60006020820190508181036000830152612599816122cb565b9050919050565b600060a0820190506125b560008301886122fd565b6125c260208301876122fd565b6125cf60408301866122fd565b6125dc60608301856122fd565b81810360808301526125ee8184612027565b90509695505050505050565b6000612604612615565b905061261082826128d3565b919050565b6000604051905090565b600067ffffffffffffffff82111561263a576126396129ab565b5b612643826129da565b9050602081019050919050565b6000819050602082019050919050565b6000819050602082019050919050565b60008190508160005260206000209050919050565b600081519050919050565b600081519050919050565b600081519050919050565b6000602082019050919050565b6000602082019050919050565b600082825260208201905092915050565b600082825260208201905092915050565b600082825260208201905092915050565b600082825260208201905092915050565b600081905092915050565b600061271a82612831565b915061272583612831565b9250827fffffffffffffffffffffffffffffffffffffffffffffffffffffffffffffffff0382111561275a5761275961294d565b5b828201905092915050565b600061277082612831565b915061277b83612831565b9250817fffffffffffffffffffffffffffffffffffffffffffffffffffffffffffffffff04831182151516156127b4576127b361294d565b5b828202905092915050565b60006127ca82612831565b91506127d583612831565b9250828210156127e8576127e761294d565b5b828203905092915050565b60006127fe82612811565b9050919050565b60008115159050919050565b600073ffffffffffffffffffffffffffffffffffffffff82169050919050565b6000819050919050565b60006128468261284d565b9050919050565b600061285882612811565b9050919050565b82818337600083830152505050565b60005b8381101561288c578082015181840152602081019050612871565b8381111561289b576000848401525b50505050565b600060028204905060018216806128b957607f821691505b602082108114156128cd576128cc61297c565b5b50919050565b6128dc826129da565b810181811067ffffffffffffffff821117156128fb576128fa6129ab565b5b80604052505050565b600061290f82612831565b91507fffffffffffffffffffffffffffffffffffffffffffffffffffffffffffffffff8214156129425761294161294d565b5b600182019050919050565b7f4e487b7100000000000000000000000000000000000000000000000000000000600052601160045260246000fd5b7f4e487b7100000000000000000000000000000000000000000000000000000000600052602260045260246000fd5b7f4e487b7100000000000000000000000000000000000000000000000000000000600052604160045260246000fd5b6000601f19601f8301169050919050565b7f4f776e61626c653a206e6577206f776e657220697320746865207a65726f206160008201527f6464726573730000000000000000000000000000000000000000000000000000602082015250565b7f4e6f7420612076616c6964206c6576656c000000000000000000000000000000600082015250565b7f4e6f7420656e6f7567682076616c75652e000000000000000000000000000000600082015250565b7f416c726561647920612076616c696420636f696e2e0000000000000000000000600082015250565b7f4e6f7420612076616c696420636f696e2e000000000000000000000000000000600082015250565b7f53656e64696e672066726f6d207a65726f20616464726573732e000000000000600082015250565b7f4f776e61626c653a2063616c6c6572206973206e6f7420746865206f776e6572600082015250565b7f4e6f7420612076616c6964206c6576656c2e0000000000000000000000000000600082015250565b7f4e6f7420656e6f7567682062616c616e63652e00000000000000000000000000600082015250565b7f4e6f7420656e6f75676820616c6c6f77616e63652e0000000000000000000000600082015250565b612bb4816127f3565b8114612bbf57600080fd5b50565b612bcb81612805565b8114612bd657600080fd5b50565b612be281612831565b8114612bed57600080fd5b5056fea26469706673582212208cbaca36f0f777ec7e9d10688afe7c3a070790cbcc2b448f5f73e48c8058a31b64736f6c63430008040033",
  "linkReferences": {},
  "deployedLinkReferences": {}
}