{
  "_format": "hh-sol-artifact-1",
  "contractName": "USDC",
  "sourceName": "contracts/USDC.sol",
  "abi": [
    {
      "inputs": [],
      "stateMutability": "nonpayable",
      "type": "constructor"
    },
    {
      "anonymous": false,
      "inputs": [
        {
          "indexed": true,
          "internalType": "address",
          "name": "owner",
          "type": "address"
        },
        {
          "indexed": true,
          "internalType": "address",
          "name": "spender",
          "type": "address"
        },
        {
          "indexed": false,
          "internalType": "uint256",
          "name": "value",
          "type": "uint256"
        }
      ],
      "name": "Approval",
      "type": "event"
    },
    {
      "anonymous": false,
      "inputs": [
        {
          "indexed": true,
          "internalType": "address",
          "name": "from",
          "type": "address"
        },
        {
          "indexed": true,
          "internalType": "address",
          "name": "to",
          "type": "address"
        },
        {
          "indexed": false,
          "internalType": "uint256",
          "name": "value",
          "type": "uint256"
        }
      ],
      "name": "Transfer",
      "type": "event"
    },
    {
      "inputs": [
        {
          "internalType": "address",
          "name": "owner",
          "type": "address"
        },
        {
          "internalType": "address",
          "name": "spender",
          "type": "address"
        }
      ],
      "name": "allowance",
      "outputs": [
        {
          "internalType": "uint256",
          "name": "",
          "type": "uint256"
        }
      ],
      "stateMutability": "view",
      "type": "function"
    },
    {
      "inputs": [
        {
          "internalType": "address",
          "name": "spender",
          "type": "address"
        },
        {
          "internalType": "uint256",
          "name": "amount",
          "type": "uint256"
        }
      ],
      "name": "approve",
      "outputs": [
        {
          "internalType": "bool",
          "name": "",
          "type": "bool"
        }
      ],
      "stateMutability": "nonpayable",
      "type": "function"
    },
    {
      "inputs": [
        {
          "internalType": "address",
          "name": "account",
          "type": "address"
        }
      ],
      "name": "balanceOf",
      "outputs": [
        {
          "internalType": "uint256",
          "name": "",
          "type": "uint256"
        }
      ],
      "stateMutability": "view",
      "type": "function"
    },
    {
      "inputs": [],
      "name": "decimals",
      "outputs": [
        {
          "internalType": "uint8",
          "name": "",
          "type": "uint8"
        }
      ],
      "stateMutability": "view",
      "type": "function"
    },
    {
      "inputs": [
        {
          "internalType": "address",
          "name": "spender",
          "type": "address"
        },
        {
          "internalType": "uint256",
          "name": "subtractedValue",
          "type": "uint256"
        }
      ],
      "name": "decreaseAllowance",
      "outputs": [
        {
          "internalType": "bool",
          "name": "",
          "type": "bool"
        }
      ],
      "stateMutability": "nonpayable",
      "type": "function"
    },
    {
      "inputs": [
        {
          "internalType": "address",
          "name": "spender",
          "type": "address"
        },
        {
          "internalType": "uint256",
          "name": "addedValue",
          "type": "uint256"
        }
      ],
      "name": "increaseAllowance",
      "outputs": [
        {
          "internalType": "bool",
          "name": "",
          "type": "bool"
        }
      ],
      "stateMutability": "nonpayable",
      "type": "function"
    },
    {
      "inputs": [
        {
          "internalType": "address",
          "name": "myaddress",
          "type": "address"
        }
      ],
      "name": "mint",
      "outputs": [],
      "stateMutability": "payable",
      "type": "function"
    },
    {
      "inputs": [],
      "name": "name",
      "outputs": [
        {
          "internalType": "string",
          "name": "",
          "type": "string"
        }
      ],
      "stateMutability": "view",
      "type": "function"
    },
    {
      "inputs": [],
      "name": "symbol",
      "outputs": [
        {
          "internalType": "string",
          "name": "",
          "type": "string"
        }
      ],
      "stateMutability": "view",
      "type": "function"
    },
    {
      "inputs": [],
      "name": "totalSupply",
      "outputs": [
        {
          "internalType": "uint256",
          "name": "",
          "type": "uint256"
        }
      ],
      "stateMutability": "view",
      "type": "function"
    },
    {
      "inputs": [
        {
          "internalType": "address",
          "name": "recipient",
          "type": "address"
        },
        {
          "internalType": "uint256",
          "name": "amount",
          "type": "uint256"
        }
      ],
      "name": "transfer",
      "outputs": [
        {
          "internalType": "bool",
          "name": "",
          "type": "bool"
        }
      ],
      "stateMutability": "nonpayable",
      "type": "function"
    },
    {
      "inputs": [
        {
          "internalType": "address",
          "name": "sender",
          "type": "address"
        },
        {
          "internalType": "address",
          "name": "recipient",
          "type": "address"
        },
        {
          "internalType": "uint256",
          "name": "amount",
          "type": "uint256"
        }
      ],
      "name": "transferFrom",
      "outputs": [
        {
          "internalType": "bool",
          "name": "",
          "type": "bool"
        }
      ],
      "stateMutability": "nonpayable",
      "type": "function"
    }
  ],
  "bytecode": "0x60806040523480156200001157600080fd5b506040518060400160405280600481526020017f55534443000000000000000000000000000000000000000000000000000000008152506040518060400160405280600481526020017f5553444300000000000000000000000000000000000000000000000000000000815250816003908051906020019062000096929190620000b8565b508060049080519060200190620000af929190620000b8565b505050620001cd565b828054620000c69062000168565b90600052602060002090601f016020900481019282620000ea576000855562000136565b82601f106200010557805160ff191683800117855562000136565b8280016001018555821562000136579182015b828111156200013557825182559160200191906001019062000118565b5b50905062000145919062000149565b5090565b5b80821115620001645760008160009055506001016200014a565b5090565b600060028204905060018216806200018157607f821691505b602082108114156200019857620001976200019e565b5b50919050565b7f4e487b7100000000000000000000000000000000000000000000000000000000600052602260045260246000fd5b61162080620001dd6000396000f3fe6080604052600436106100a75760003560e01c80636a627842116100645780636a627842146101e457806370a082311461020057806395d89b411461023d578063a457c2d714610268578063a9059cbb146102a5578063dd62ed3e146102e2576100a7565b806306fdde03146100ac578063095ea7b3146100d757806318160ddd1461011457806323b872dd1461013f578063313ce5671461017c57806339509351146101a7575b600080fd5b3480156100b857600080fd5b506100c161031f565b6040516100ce9190611077565b60405180910390f35b3480156100e357600080fd5b506100fe60048036038101906100f99190610ea2565b6103b1565b60405161010b919061105c565b60405180910390f35b34801561012057600080fd5b506101296103cf565b6040516101369190611199565b60405180910390f35b34801561014b57600080fd5b5061016660048036038101906101619190610e53565b6103d9565b604051610173919061105c565b60405180910390f35b34801561018857600080fd5b506101916104d1565b60405161019e91906111b4565b60405180910390f35b3480156101b357600080fd5b506101ce60048036038101906101c99190610ea2565b6104da565b6040516101db919061105c565b60405180910390f35b6101fe60048036038101906101f99190610dee565b610586565b005b34801561020c57600080fd5b5061022760048036038101906102229190610dee565b61059c565b6040516102349190611199565b60405180910390f35b34801561024957600080fd5b506102526105e4565b60405161025f9190611077565b60405180910390f35b34801561027457600080fd5b5061028f600480360381019061028a9190610ea2565b610676565b60405161029c919061105c565b60405180910390f35b3480156102b157600080fd5b506102cc60048036038101906102c79190610ea2565b610761565b6040516102d9919061105c565b60405180910390f35b3480156102ee57600080fd5b5061030960048036038101906103049190610e17565b61077f565b6040516103169190611199565b60405180910390f35b60606003805461032e906112c9565b80601f016020809104026020016040519081016040528092919081815260200182805461035a906112c9565b80156103a75780601f1061037c576101008083540402835291602001916103a7565b820191906000526020600020905b81548152906001019060200180831161038a57829003601f168201915b5050505050905090565b60006103c56103be610806565b848461080e565b6001905092915050565b6000600254905090565b60006103e68484846109d9565b6000600160008673ffffffffffffffffffffffffffffffffffffffff1673ffffffffffffffffffffffffffffffffffffffff1681526020019081526020016000206000610431610806565b73ffffffffffffffffffffffffffffffffffffffff1673ffffffffffffffffffffffffffffffffffffffff168152602001908152602001600020549050828110156104b1576040517f08c379a00000000000000000000000000000000000000000000000000000000081526004016104a8906110f9565b60405180910390fd5b6104c5856104bd610806565b85840361080e565b60019150509392505050565b60006012905090565b600061057c6104e7610806565b8484600160006104f5610806565b73ffffffffffffffffffffffffffffffffffffffff1673ffffffffffffffffffffffffffffffffffffffff16815260200190815260200160002060008873ffffffffffffffffffffffffffffffffffffffff1673ffffffffffffffffffffffffffffffffffffffff1681526020019081526020016000205461057791906111eb565b61080e565b6001905092915050565b61059981683635c9adc5dea00000610c5a565b50565b60008060008373ffffffffffffffffffffffffffffffffffffffff1673ffffffffffffffffffffffffffffffffffffffff168152602001908152602001600020549050919050565b6060600480546105f3906112c9565b80601f016020809104026020016040519081016040528092919081815260200182805461061f906112c9565b801561066c5780601f106106415761010080835404028352916020019161066c565b820191906000526020600020905b81548152906001019060200180831161064f57829003601f168201915b5050505050905090565b60008060016000610685610806565b73ffffffffffffffffffffffffffffffffffffffff1673ffffffffffffffffffffffffffffffffffffffff16815260200190815260200160002060008573ffffffffffffffffffffffffffffffffffffffff1673ffffffffffffffffffffffffffffffffffffffff16815260200190815260200160002054905082811015610742576040517f08c379a000000000000000000000000000000000000000000000000000000000815260040161073990611159565b60405180910390fd5b61075661074d610806565b8585840361080e565b600191505092915050565b600061077561076e610806565b84846109d9565b6001905092915050565b6000600160008473ffffffffffffffffffffffffffffffffffffffff1673ffffffffffffffffffffffffffffffffffffffff16815260200190815260200160002060008373ffffffffffffffffffffffffffffffffffffffff1673ffffffffffffffffffffffffffffffffffffffff16815260200190815260200160002054905092915050565b600033905090565b600073ffffffffffffffffffffffffffffffffffffffff168373ffffffffffffffffffffffffffffffffffffffff16141561087e576040517f08c379a000000000000000000000000000000000000000000000000000000000815260040161087590611139565b60405180910390fd5b600073ffffffffffffffffffffffffffffffffffffffff168273ffffffffffffffffffffffffffffffffffffffff1614156108ee576040517f08c379a00000000000000000000000000000000000000000000000000000000081526004016108e5906110b9565b60405180910390fd5b80600160008573ffffffffffffffffffffffffffffffffffffffff1673ffffffffffffffffffffffffffffffffffffffff16815260200190815260200160002060008473ffffffffffffffffffffffffffffffffffffffff1673ffffffffffffffffffffffffffffffffffffffff168152602001908152602001600020819055508173ffffffffffffffffffffffffffffffffffffffff168373ffffffffffffffffffffffffffffffffffffffff167f8c5be1e5ebec7d5bd14f71427d1e84f3dd0314c0f7b2291e5b200ac8c7c3b925836040516109cc9190611199565b60405180910390a3505050565b600073ffffffffffffffffffffffffffffffffffffffff168373ffffffffffffffffffffffffffffffffffffffff161415610a49576040517f08c379a0000000000000000000000000000000000000000000000000000000008152600401610a4090611119565b60405180910390fd5b600073ffffffffffffffffffffffffffffffffffffffff168273ffffffffffffffffffffffffffffffffffffffff161415610ab9576040517f08c379a0000000000000000000000000000000000000000000000000000000008152600401610ab090611099565b60405180910390fd5b610ac4838383610dba565b60008060008573ffffffffffffffffffffffffffffffffffffffff1673ffffffffffffffffffffffffffffffffffffffff16815260200190815260200160002054905081811015610b4a576040517f08c379a0000000000000000000000000000000000000000000000000000000008152600401610b41906110d9565b60405180910390fd5b8181036000808673ffffffffffffffffffffffffffffffffffffffff1673ffffffffffffffffffffffffffffffffffffffff16815260200190815260200160002081905550816000808573ffffffffffffffffffffffffffffffffffffffff1673ffffffffffffffffffffffffffffffffffffffff1681526020019081526020016000206000828254610bdd91906111eb565b925050819055508273ffffffffffffffffffffffffffffffffffffffff168473ffffffffffffffffffffffffffffffffffffffff167fddf252ad1be2c89b69c2b068fc378daa952ba7f163c4a11628f55a4df523b3ef84604051610c419190611199565b60405180910390a3610c54848484610dbf565b50505050565b600073ffffffffffffffffffffffffffffffffffffffff168273ffffffffffffffffffffffffffffffffffffffff161415610cca576040517f08c379a0000000000000000000000000000000000000000000000000000000008152600401610cc190611179565b60405180910390fd5b610cd660008383610dba565b8060026000828254610ce891906111eb565b92505081905550806000808473ffffffffffffffffffffffffffffffffffffffff1673ffffffffffffffffffffffffffffffffffffffff1681526020019081526020016000206000828254610d3d91906111eb565b925050819055508173ffffffffffffffffffffffffffffffffffffffff16600073ffffffffffffffffffffffffffffffffffffffff167fddf252ad1be2c89b69c2b068fc378daa952ba7f163c4a11628f55a4df523b3ef83604051610da29190611199565b60405180910390a3610db660008383610dbf565b5050565b505050565b505050565b600081359050610dd3816115bc565b92915050565b600081359050610de8816115d3565b92915050565b600060208284031215610e0057600080fd5b6000610e0e84828501610dc4565b91505092915050565b60008060408385031215610e2a57600080fd5b6000610e3885828601610dc4565b9250506020610e4985828601610dc4565b9150509250929050565b600080600060608486031215610e6857600080fd5b6000610e7686828701610dc4565b9350506020610e8786828701610dc4565b9250506040610e9886828701610dd9565b9150509250925092565b60008060408385031215610eb557600080fd5b6000610ec385828601610dc4565b9250506020610ed485828601610dd9565b9150509250929050565b610ee781611253565b82525050565b6000610ef8826111cf565b610f0281856111da565b9350610f12818560208601611296565b610f1b81611359565b840191505092915050565b6000610f336023836111da565b9150610f3e8261136a565b604082019050919050565b6000610f566022836111da565b9150610f61826113b9565b604082019050919050565b6000610f796026836111da565b9150610f8482611408565b604082019050919050565b6000610f9c6028836111da565b9150610fa782611457565b604082019050919050565b6000610fbf6025836111da565b9150610fca826114a6565b604082019050919050565b6000610fe26024836111da565b9150610fed826114f5565b604082019050919050565b60006110056025836111da565b915061101082611544565b604082019050919050565b6000611028601f836111da565b915061103382611593565b602082019050919050565b6110478161127f565b82525050565b61105681611289565b82525050565b60006020820190506110716000830184610ede565b92915050565b600060208201905081810360008301526110918184610eed565b905092915050565b600060208201905081810360008301526110b281610f26565b9050919050565b600060208201905081810360008301526110d281610f49565b9050919050565b600060208201905081810360008301526110f281610f6c565b9050919050565b6000602082019050818103600083015261111281610f8f565b9050919050565b6000602082019050818103600083015261113281610fb2565b9050919050565b6000602082019050818103600083015261115281610fd5565b9050919050565b6000602082019050818103600083015261117281610ff8565b9050919050565b600060208201905081810360008301526111928161101b565b9050919050565b60006020820190506111ae600083018461103e565b92915050565b60006020820190506111c9600083018461104d565b92915050565b600081519050919050565b600082825260208201905092915050565b60006111f68261127f565b91506112018361127f565b9250827fffffffffffffffffffffffffffffffffffffffffffffffffffffffffffffffff03821115611236576112356112fb565b5b828201905092915050565b600061124c8261125f565b9050919050565b60008115159050919050565b600073ffffffffffffffffffffffffffffffffffffffff82169050919050565b6000819050919050565b600060ff82169050919050565b60005b838110156112b4578082015181840152602081019050611299565b838111156112c3576000848401525b50505050565b600060028204905060018216806112e157607f821691505b602082108114156112f5576112f461132a565b5b50919050565b7f4e487b7100000000000000000000000000000000000000000000000000000000600052601160045260246000fd5b7f4e487b7100000000000000000000000000000000000000000000000000000000600052602260045260246000fd5b6000601f19601f8301169050919050565b7f45524332303a207472616e7366657220746f20746865207a65726f206164647260008201527f6573730000000000000000000000000000000000000000000000000000000000602082015250565b7f45524332303a20617070726f766520746f20746865207a65726f20616464726560008201527f7373000000000000000000000000000000000000000000000000000000000000602082015250565b7f45524332303a207472616e7366657220616d6f756e742065786365656473206260008201527f616c616e63650000000000000000000000000000000000000000000000000000602082015250565b7f45524332303a207472616e7366657220616d6f756e742065786365656473206160008201527f6c6c6f77616e6365000000000000000000000000000000000000000000000000602082015250565b7f45524332303a207472616e736665722066726f6d20746865207a65726f20616460008201527f6472657373000000000000000000000000000000000000000000000000000000602082015250565b7f45524332303a20617070726f76652066726f6d20746865207a65726f2061646460008201527f7265737300000000000000000000000000000000000000000000000000000000602082015250565b7f45524332303a2064656372656173656420616c6c6f77616e63652062656c6f7760008201527f207a65726f000000000000000000000000000000000000000000000000000000602082015250565b7f45524332303a206d696e7420746f20746865207a65726f206164647265737300600082015250565b6115c581611241565b81146115d057600080fd5b50565b6115dc8161127f565b81146115e757600080fd5b5056fea264697066735822122012cb409f5af5b6f69f7177e52337884aa35069133948efe465edc779e1aebfc564736f6c63430008040033",
  "linkReferences": {},
  "deployedLinkReferences": {}
}