{
  "_format": "hh-sol-artifact-1",
  "contractName": "NFTree",
  "sourceName": "contracts/NFTree.sol",
  "abi": [
    {
      "inputs": [],
      "stateMutability": "nonpayable",
      "type": "constructor"
    },
    {
      "anonymous": false,
      "inputs": [
        {
          "indexed": true,
          "internalType": "address",
          "name": "owner",
          "type": "address"
        },
        {
          "indexed": true,
          "internalType": "address",
          "name": "approved",
          "type": "address"
        },
        {
          "indexed": true,
          "internalType": "uint256",
          "name": "tokenId",
          "type": "uint256"
        }
      ],
      "name": "Approval",
      "type": "event"
    },
    {
      "anonymous": false,
      "inputs": [
        {
          "indexed": true,
          "internalType": "address",
          "name": "owner",
          "type": "address"
        },
        {
          "indexed": true,
          "internalType": "address",
          "name": "operator",
          "type": "address"
        },
        {
          "indexed": false,
          "internalType": "bool",
          "name": "approved",
          "type": "bool"
        }
      ],
      "name": "ApprovalForAll",
      "type": "event"
    },
    {
      "anonymous": false,
      "inputs": [
        {
          "indexed": false,
          "internalType": "address",
          "name": "_recipient",
          "type": "address"
        },
        {
          "indexed": false,
          "internalType": "uint256",
          "name": "_tokenId",
          "type": "uint256"
        },
        {
          "indexed": false,
          "internalType": "uint256",
          "name": "_carbonOffset",
          "type": "uint256"
        },
        {
          "indexed": false,
          "internalType": "uint256",
          "name": "_treesPlanted",
          "type": "uint256"
        }
      ],
      "name": "Mint",
      "type": "event"
    },
    {
      "anonymous": false,
      "inputs": [
        {
          "indexed": true,
          "internalType": "address",
          "name": "previousOwner",
          "type": "address"
        },
        {
          "indexed": true,
          "internalType": "address",
          "name": "newOwner",
          "type": "address"
        }
      ],
      "name": "OwnershipTransferred",
      "type": "event"
    },
    {
      "anonymous": false,
      "inputs": [
        {
          "indexed": true,
          "internalType": "address",
          "name": "from",
          "type": "address"
        },
        {
          "indexed": true,
          "internalType": "address",
          "name": "to",
          "type": "address"
        },
        {
          "indexed": true,
          "internalType": "uint256",
          "name": "tokenId",
          "type": "uint256"
        }
      ],
      "name": "Transfer",
      "type": "event"
    },
    {
      "inputs": [
        {
          "internalType": "address",
          "name": "_contractAddress",
          "type": "address"
        }
      ],
      "name": "addWhitelist",
      "outputs": [],
      "stateMutability": "nonpayable",
      "type": "function"
    },
    {
      "inputs": [
        {
          "internalType": "address",
          "name": "to",
          "type": "address"
        },
        {
          "internalType": "uint256",
          "name": "tokenId",
          "type": "uint256"
        }
      ],
      "name": "approve",
      "outputs": [],
      "stateMutability": "nonpayable",
      "type": "function"
    },
    {
      "inputs": [
        {
          "internalType": "address",
          "name": "owner",
          "type": "address"
        }
      ],
      "name": "balanceOf",
      "outputs": [
        {
          "internalType": "uint256",
          "name": "",
          "type": "uint256"
        }
      ],
      "stateMutability": "view",
      "type": "function"
    },
    {
      "inputs": [],
      "name": "carbonOffset",
      "outputs": [
        {
          "internalType": "uint256",
          "name": "",
          "type": "uint256"
        }
      ],
      "stateMutability": "view",
      "type": "function"
    },
    {
      "inputs": [
        {
          "internalType": "uint256",
          "name": "tokenId",
          "type": "uint256"
        }
      ],
      "name": "getApproved",
      "outputs": [
        {
          "internalType": "address",
          "name": "",
          "type": "address"
        }
      ],
      "stateMutability": "view",
      "type": "function"
    },
    {
      "inputs": [],
      "name": "getNextTokenId",
      "outputs": [
        {
          "internalType": "uint256",
          "name": "",
          "type": "uint256"
        }
      ],
      "stateMutability": "view",
      "type": "function"
    },
    {
      "inputs": [],
      "name": "getValidWhitelists",
      "outputs": [
        {
          "internalType": "address[]",
          "name": "",
          "type": "address[]"
        }
      ],
      "stateMutability": "view",
      "type": "function"
    },
    {
      "inputs": [
        {
          "internalType": "address",
          "name": "owner",
          "type": "address"
        },
        {
          "internalType": "address",
          "name": "operator",
          "type": "address"
        }
      ],
      "name": "isApprovedForAll",
      "outputs": [
        {
          "internalType": "bool",
          "name": "",
          "type": "bool"
        }
      ],
      "stateMutability": "view",
      "type": "function"
    },
    {
      "inputs": [
        {
          "internalType": "address",
          "name": "_recipient",
          "type": "address"
        },
        {
          "internalType": "string",
          "name": "_tokenURI",
          "type": "string"
        },
        {
          "internalType": "uint256",
          "name": "_carbonOffset",
          "type": "uint256"
        },
        {
          "internalType": "uint256",
          "name": "_treesPlanted",
          "type": "uint256"
        }
      ],
      "name": "mintNFTree",
      "outputs": [],
      "stateMutability": "nonpayable",
      "type": "function"
    },
    {
      "inputs": [],
      "name": "name",
      "outputs": [
        {
          "internalType": "string",
          "name": "",
          "type": "string"
        }
      ],
      "stateMutability": "view",
      "type": "function"
    },
    {
      "inputs": [],
      "name": "owner",
      "outputs": [
        {
          "internalType": "address",
          "name": "",
          "type": "address"
        }
      ],
      "stateMutability": "view",
      "type": "function"
    },
    {
      "inputs": [
        {
          "internalType": "uint256",
          "name": "tokenId",
          "type": "uint256"
        }
      ],
      "name": "ownerOf",
      "outputs": [
        {
          "internalType": "address",
          "name": "",
          "type": "address"
        }
      ],
      "stateMutability": "view",
      "type": "function"
    },
    {
      "inputs": [
        {
          "internalType": "address",
          "name": "_contractAddress",
          "type": "address"
        }
      ],
      "name": "removeWhitelist",
      "outputs": [],
      "stateMutability": "nonpayable",
      "type": "function"
    },
    {
      "inputs": [],
      "name": "renounceOwnership",
      "outputs": [],
      "stateMutability": "nonpayable",
      "type": "function"
    },
    {
      "inputs": [
        {
          "internalType": "address",
          "name": "from",
          "type": "address"
        },
        {
          "internalType": "address",
          "name": "to",
          "type": "address"
        },
        {
          "internalType": "uint256",
          "name": "tokenId",
          "type": "uint256"
        }
      ],
      "name": "safeTransferFrom",
      "outputs": [],
      "stateMutability": "nonpayable",
      "type": "function"
    },
    {
      "inputs": [
        {
          "internalType": "address",
          "name": "from",
          "type": "address"
        },
        {
          "internalType": "address",
          "name": "to",
          "type": "address"
        },
        {
          "internalType": "uint256",
          "name": "tokenId",
          "type": "uint256"
        },
        {
          "internalType": "bytes",
          "name": "_data",
          "type": "bytes"
        }
      ],
      "name": "safeTransferFrom",
      "outputs": [],
      "stateMutability": "nonpayable",
      "type": "function"
    },
    {
      "inputs": [
        {
          "internalType": "address",
          "name": "operator",
          "type": "address"
        },
        {
          "internalType": "bool",
          "name": "approved",
          "type": "bool"
        }
      ],
      "name": "setApprovalForAll",
      "outputs": [],
      "stateMutability": "nonpayable",
      "type": "function"
    },
    {
      "inputs": [
        {
          "internalType": "bytes4",
          "name": "interfaceId",
          "type": "bytes4"
        }
      ],
      "name": "supportsInterface",
      "outputs": [
        {
          "internalType": "bool",
          "name": "",
          "type": "bool"
        }
      ],
      "stateMutability": "view",
      "type": "function"
    },
    {
      "inputs": [],
      "name": "symbol",
      "outputs": [
        {
          "internalType": "string",
          "name": "",
          "type": "string"
        }
      ],
      "stateMutability": "view",
      "type": "function"
    },
    {
      "inputs": [
        {
          "internalType": "uint256",
          "name": "tokenId",
          "type": "uint256"
        }
      ],
      "name": "tokenURI",
      "outputs": [
        {
          "internalType": "string",
          "name": "",
          "type": "string"
        }
      ],
      "stateMutability": "view",
      "type": "function"
    },
    {
      "inputs": [
        {
          "internalType": "address",
          "name": "_owner",
          "type": "address"
        }
      ],
      "name": "tokensOfOwner",
      "outputs": [
        {
          "internalType": "uint256[]",
          "name": "",
          "type": "uint256[]"
        }
      ],
      "stateMutability": "view",
      "type": "function"
    },
    {
      "inputs": [
        {
          "internalType": "address",
          "name": "from",
          "type": "address"
        },
        {
          "internalType": "address",
          "name": "to",
          "type": "address"
        },
        {
          "internalType": "uint256",
          "name": "tokenId",
          "type": "uint256"
        }
      ],
      "name": "transferFrom",
      "outputs": [],
      "stateMutability": "nonpayable",
      "type": "function"
    },
    {
      "inputs": [
        {
          "internalType": "address",
          "name": "newOwner",
          "type": "address"
        }
      ],
      "name": "transferOwnership",
      "outputs": [],
      "stateMutability": "nonpayable",
      "type": "function"
    },
    {
      "inputs": [],
      "name": "treesPlanted",
      "outputs": [
        {
          "internalType": "uint256",
          "name": "",
          "type": "uint256"
        }
      ],
      "stateMutability": "view",
      "type": "function"
    }
  ],
  "bytecode": "0x60806040523480156200001157600080fd5b506040518060400160405280600681526020017f4e465472656500000000000000000000000000000000000000000000000000008152506040518060400160405280600481526020017f54524545000000000000000000000000000000000000000000000000000000008152506200009e62000092620000f060201b60201c565b620000f860201b60201c565b8160019080519060200190620000b6929190620001bc565b508060029080519060200190620000cf929190620001bc565b505050600160088190555060006009819055506000600a81905550620002d1565b600033905090565b60008060009054906101000a900473ffffffffffffffffffffffffffffffffffffffff169050816000806101000a81548173ffffffffffffffffffffffffffffffffffffffff021916908373ffffffffffffffffffffffffffffffffffffffff1602179055508173ffffffffffffffffffffffffffffffffffffffff168173ffffffffffffffffffffffffffffffffffffffff167f8be0079c531659141344cd1fd0a4f28419497f9722a3daafe3b4186f6b6457e060405160405180910390a35050565b828054620001ca906200026c565b90600052602060002090601f016020900481019282620001ee57600085556200023a565b82601f106200020957805160ff19168380011785556200023a565b828001600101855582156200023a579182015b82811115620002395782518255916020019190600101906200021c565b5b5090506200024991906200024d565b5090565b5b80821115620002685760008160009055506001016200024e565b5090565b600060028204905060018216806200028557607f821691505b602082108114156200029c576200029b620002a2565b5b50919050565b7f4e487b7100000000000000000000000000000000000000000000000000000000600052602260045260246000fd5b613e6280620002e16000396000f3fe608060405234801561001057600080fd5b50600436106101585760003560e01c80638462151c116100c3578063c87b56dd1161007c578063c87b56dd146103b1578063caa0f92a146103e1578063e985e9c5146103ff578063f2fde38b1461042f578063f80f5dd51461044b578063fbbb7d8b1461046757610158565b80638462151c146102ef5780638da5cb5b1461031f57806395d89b411461033d578063a22cb4651461035b578063b88d4fde14610377578063c75e31d61461039357610158565b80635338dd73116101155780635338dd731461022f5780635bb60f081461024d5780636352211e1461026957806370a0823114610299578063715018a6146102c957806378c8cda7146102d357610158565b806301ffc9a71461015d57806306fdde031461018d578063081812fc146101ab578063095ea7b3146101db57806323b872dd146101f757806342842e0e14610213575b600080fd5b61017760048036038101906101729190612a7c565b610485565b60405161018491906130c4565b60405180910390f35b610195610567565b6040516101a291906130df565b60405180910390f35b6101c560048036038101906101c09190612ace565b6105f9565b6040516101d29190612fd4565b60405180910390f35b6101f560048036038101906101f09190612a40565b61067e565b005b610211600480360381019061020c91906128bf565b610796565b005b61022d600480360381019061022891906128bf565b6107f6565b005b610237610816565b60405161024491906133a1565b60405180910390f35b610267600480360381019061026291906129c5565b61081c565b005b610283600480360381019061027e9190612ace565b610960565b6040516102909190612fd4565b60405180910390f35b6102b360048036038101906102ae919061285a565b610a12565b6040516102c091906133a1565b60405180910390f35b6102d1610aca565b005b6102ed60048036038101906102e8919061285a565b610b52565b005b6103096004803603810190610304919061285a565b610f08565b60405161031691906130a2565b60405180910390f35b6103276110d9565b6040516103349190612fd4565b60405180910390f35b610345611102565b60405161035291906130df565b60405180910390f35b61037560048036038101906103709190612989565b611194565b005b610391600480360381019061038c919061290e565b611315565b005b61039b611377565b6040516103a891906133a1565b60405180910390f35b6103cb60048036038101906103c69190612ace565b61137d565b6040516103d891906130df565b60405180910390f35b6103e96114cf565b6040516103f691906133a1565b60405180910390f35b61041960048036038101906104149190612883565b6114d9565b60405161042691906130c4565b60405180910390f35b6104496004803603810190610444919061285a565b61156d565b005b6104656004803603810190610460919061285a565b611665565b005b61046f6118ae565b60405161047c9190613080565b60405180910390f35b60007f80ac58cd000000000000000000000000000000000000000000000000000000007bffffffffffffffffffffffffffffffffffffffffffffffffffffffff1916827bffffffffffffffffffffffffffffffffffffffffffffffffffffffff1916148061055057507f5b5e139f000000000000000000000000000000000000000000000000000000007bffffffffffffffffffffffffffffffffffffffffffffffffffffffff1916827bffffffffffffffffffffffffffffffffffffffffffffffffffffffff1916145b80610560575061055f826119b8565b5b9050919050565b60606001805461057690613669565b80601f01602080910402602001604051908101604052809291908181526020018280546105a290613669565b80156105ef5780601f106105c4576101008083540402835291602001916105ef565b820191906000526020600020905b8154815290600101906020018083116105d257829003601f168201915b5050505050905090565b600061060482611a22565b610643576040517f08c379a000000000000000000000000000000000000000000000000000000000815260040161063a906132a1565b60405180910390fd5b6005600083815260200190815260200160002060009054906101000a900473ffffffffffffffffffffffffffffffffffffffff169050919050565b600061068982610960565b90508073ffffffffffffffffffffffffffffffffffffffff168373ffffffffffffffffffffffffffffffffffffffff1614156106fa576040517f08c379a00000000000000000000000000000000000000000000000000000000081526004016106f190613321565b60405180910390fd5b8073ffffffffffffffffffffffffffffffffffffffff16610719611a8e565b73ffffffffffffffffffffffffffffffffffffffff161480610748575061074781610742611a8e565b6114d9565b5b610787576040517f08c379a000000000000000000000000000000000000000000000000000000000815260040161077e906131e1565b60405180910390fd5b6107918383611a96565b505050565b6107a76107a1611a8e565b82611b4f565b6107e6576040517f08c379a00000000000000000000000000000000000000000000000000000000081526004016107dd90613341565b60405180910390fd5b6107f1838383611c2d565b505050565b61081183838360405180602001604052806000815250611315565b505050565b60095481565b600c60003373ffffffffffffffffffffffffffffffffffffffff1673ffffffffffffffffffffffffffffffffffffffff16815260200190815260200160002060000160009054906101000a900460ff166108ab576040517f08c379a00000000000000000000000000000000000000000000000000000000081526004016108a290613361565b60405180910390fd5b6108b784600854611e89565b6108c360085484611ea7565b6001600860008282546108d691906134f8565b9250508190555081600960008282546108ef91906134f8565b9250508190555080600a600082825461090891906134f8565b925050819055507fb4c03061fb5b7fed76389d5af8f2e0ddb09f8c70d1333abbb62582835e10accb846001600854610940919061357f565b8484604051610952949392919061303b565b60405180910390a150505050565b6000806003600084815260200190815260200160002060009054906101000a900473ffffffffffffffffffffffffffffffffffffffff169050600073ffffffffffffffffffffffffffffffffffffffff168173ffffffffffffffffffffffffffffffffffffffff161415610a09576040517f08c379a0000000000000000000000000000000000000000000000000000000008152600401610a0090613221565b60405180910390fd5b80915050919050565b60008073ffffffffffffffffffffffffffffffffffffffff168273ffffffffffffffffffffffffffffffffffffffff161415610a83576040517f08c379a0000000000000000000000000000000000000000000000000000000008152600401610a7a90613201565b60405180910390fd5b600460008373ffffffffffffffffffffffffffffffffffffffff1673ffffffffffffffffffffffffffffffffffffffff168152602001908152602001600020549050919050565b610ad2611a8e565b73ffffffffffffffffffffffffffffffffffffffff16610af06110d9565b73ffffffffffffffffffffffffffffffffffffffff1614610b46576040517f08c379a0000000000000000000000000000000000000000000000000000000008152600401610b3d906132c1565b60405180910390fd5b610b506000611f1b565b565b610b5a611a8e565b73ffffffffffffffffffffffffffffffffffffffff16610b786110d9565b73ffffffffffffffffffffffffffffffffffffffff1614610bce576040517f08c379a0000000000000000000000000000000000000000000000000000000008152600401610bc5906132c1565b60405180910390fd5b600c60008273ffffffffffffffffffffffffffffffffffffffff1673ffffffffffffffffffffffffffffffffffffffff16815260200190815260200160002060000160009054906101000a900460ff16610c5d576040517f08c379a0000000000000000000000000000000000000000000000000000000008152600401610c5490613101565b60405180910390fd5b600080600090505b600b80549050811015610d21578273ffffffffffffffffffffffffffffffffffffffff16600b8281548110610cc3577f4e487b7100000000000000000000000000000000000000000000000000000000600052603260045260246000fd5b9060005260206000200160009054906101000a900473ffffffffffffffffffffffffffffffffffffffff1673ffffffffffffffffffffffffffffffffffffffff161415610d0e578091505b8080610d19906136cc565b915050610c65565b50600b6001600b80549050610d36919061357f565b81548110610d6d577f4e487b7100000000000000000000000000000000000000000000000000000000600052603260045260246000fd5b9060005260206000200160009054906101000a900473ffffffffffffffffffffffffffffffffffffffff16600b8281548110610dd2577f4e487b7100000000000000000000000000000000000000000000000000000000600052603260045260246000fd5b9060005260206000200160006101000a81548173ffffffffffffffffffffffffffffffffffffffff021916908373ffffffffffffffffffffffffffffffffffffffff160217905550600b805480610e52577f4e487b7100000000000000000000000000000000000000000000000000000000600052603160045260246000fd5b6001900381819060005260206000200160006101000a81549073ffffffffffffffffffffffffffffffffffffffff02191690559055600c60008373ffffffffffffffffffffffffffffffffffffffff1673ffffffffffffffffffffffffffffffffffffffff168152602001908152602001600020600080820160006101000a81549060ff02191690556000820160016101000a81549073ffffffffffffffffffffffffffffffffffffffff021916905550505050565b60606000610f1583610a12565b90506000811415610f9857600067ffffffffffffffff811115610f61577f4e487b7100000000000000000000000000000000000000000000000000000000600052604160045260246000fd5b604051908082528060200260200182016040528015610f8f5781602001602082028036833780820191505090505b509150506110d4565b6000808267ffffffffffffffff811115610fdb577f4e487b7100000000000000000000000000000000000000000000000000000000600052604160045260246000fd5b6040519080825280602002602001820160405280156110095781602001602082028036833780820191505090505b5090506000600190505b6001600854611022919061357f565b81116110cc578573ffffffffffffffffffffffffffffffffffffffff1661104882610960565b73ffffffffffffffffffffffffffffffffffffffff1614156110b9578082848151811061109e577f4e487b7100000000000000000000000000000000000000000000000000000000600052603260045260246000fd5b60200260200101818152505082806110b5906136cc565b9350505b80806110c4906136cc565b915050611013565b508093505050505b919050565b60008060009054906101000a900473ffffffffffffffffffffffffffffffffffffffff16905090565b60606002805461111190613669565b80601f016020809104026020016040519081016040528092919081815260200182805461113d90613669565b801561118a5780601f1061115f5761010080835404028352916020019161118a565b820191906000526020600020905b81548152906001019060200180831161116d57829003601f168201915b5050505050905090565b61119c611a8e565b73ffffffffffffffffffffffffffffffffffffffff168273ffffffffffffffffffffffffffffffffffffffff16141561120a576040517f08c379a0000000000000000000000000000000000000000000000000000000008152600401611201906131a1565b60405180910390fd5b8060066000611217611a8e565b73ffffffffffffffffffffffffffffffffffffffff1673ffffffffffffffffffffffffffffffffffffffff16815260200190815260200160002060008473ffffffffffffffffffffffffffffffffffffffff1673ffffffffffffffffffffffffffffffffffffffff16815260200190815260200160002060006101000a81548160ff0219169083151502179055508173ffffffffffffffffffffffffffffffffffffffff166112c4611a8e565b73ffffffffffffffffffffffffffffffffffffffff167f17307eab39ab6107e8899845ad3d59bd9653f200f220920489ca2b5937696c318360405161130991906130c4565b60405180910390a35050565b611326611320611a8e565b83611b4f565b611365576040517f08c379a000000000000000000000000000000000000000000000000000000000815260040161135c90613341565b60405180910390fd5b61137184848484611fdf565b50505050565b600a5481565b606061138882611a22565b6113c7576040517f08c379a00000000000000000000000000000000000000000000000000000000081526004016113be90613281565b60405180910390fd5b60006007600084815260200190815260200160002080546113e790613669565b80601f016020809104026020016040519081016040528092919081815260200182805461141390613669565b80156114605780601f1061143557610100808354040283529160200191611460565b820191906000526020600020905b81548152906001019060200180831161144357829003601f168201915b50505050509050600061147161203b565b90506000815114156114875781925050506114ca565b6000825111156114bc5780826040516020016114a4929190612fb0565b604051602081830303815290604052925050506114ca565b6114c584612052565b925050505b919050565b6000600854905090565b6000600660008473ffffffffffffffffffffffffffffffffffffffff1673ffffffffffffffffffffffffffffffffffffffff16815260200190815260200160002060008373ffffffffffffffffffffffffffffffffffffffff1673ffffffffffffffffffffffffffffffffffffffff16815260200190815260200160002060009054906101000a900460ff16905092915050565b611575611a8e565b73ffffffffffffffffffffffffffffffffffffffff166115936110d9565b73ffffffffffffffffffffffffffffffffffffffff16146115e9576040517f08c379a00000000000000000000000000000000000000000000000000000000081526004016115e0906132c1565b60405180910390fd5b600073ffffffffffffffffffffffffffffffffffffffff168173ffffffffffffffffffffffffffffffffffffffff161415611659576040517f08c379a000000000000000000000000000000000000000000000000000000000815260040161165090613141565b60405180910390fd5b61166281611f1b565b50565b61166d611a8e565b73ffffffffffffffffffffffffffffffffffffffff1661168b6110d9565b73ffffffffffffffffffffffffffffffffffffffff16146116e1576040517f08c379a00000000000000000000000000000000000000000000000000000000081526004016116d8906132c1565b60405180910390fd5b600c60008273ffffffffffffffffffffffffffffffffffffffff1673ffffffffffffffffffffffffffffffffffffffff16815260200190815260200160002060000160009054906101000a900460ff1615611771576040517f08c379a000000000000000000000000000000000000000000000000000000000815260040161176890613381565b60405180910390fd5b60405180604001604052806001151581526020018273ffffffffffffffffffffffffffffffffffffffff16815250600c60008373ffffffffffffffffffffffffffffffffffffffff1673ffffffffffffffffffffffffffffffffffffffff16815260200190815260200160002060008201518160000160006101000a81548160ff02191690831515021790555060208201518160000160016101000a81548173ffffffffffffffffffffffffffffffffffffffff021916908373ffffffffffffffffffffffffffffffffffffffff160217905550905050600b819080600181540180825580915050600190039060005260206000200160009091909190916101000a81548173ffffffffffffffffffffffffffffffffffffffff021916908373ffffffffffffffffffffffffffffffffffffffff16021790555050565b60606118b8611a8e565b73ffffffffffffffffffffffffffffffffffffffff166118d66110d9565b73ffffffffffffffffffffffffffffffffffffffff161461192c576040517f08c379a0000000000000000000000000000000000000000000000000000000008152600401611923906132c1565b60405180910390fd5b600b8054806020026020016040519081016040528092919081815260200182805480156119ae57602002820191906000526020600020905b8160009054906101000a900473ffffffffffffffffffffffffffffffffffffffff1673ffffffffffffffffffffffffffffffffffffffff1681526020019060010190808311611964575b5050505050905090565b60007f01ffc9a7000000000000000000000000000000000000000000000000000000007bffffffffffffffffffffffffffffffffffffffffffffffffffffffff1916827bffffffffffffffffffffffffffffffffffffffffffffffffffffffff1916149050919050565b60008073ffffffffffffffffffffffffffffffffffffffff166003600084815260200190815260200160002060009054906101000a900473ffffffffffffffffffffffffffffffffffffffff1673ffffffffffffffffffffffffffffffffffffffff1614159050919050565b600033905090565b816005600083815260200190815260200160002060006101000a81548173ffffffffffffffffffffffffffffffffffffffff021916908373ffffffffffffffffffffffffffffffffffffffff160217905550808273ffffffffffffffffffffffffffffffffffffffff16611b0983610960565b73ffffffffffffffffffffffffffffffffffffffff167f8c5be1e5ebec7d5bd14f71427d1e84f3dd0314c0f7b2291e5b200ac8c7c3b92560405160405180910390a45050565b6000611b5a82611a22565b611b99576040517f08c379a0000000000000000000000000000000000000000000000000000000008152600401611b90906131c1565b60405180910390fd5b6000611ba483610960565b90508073ffffffffffffffffffffffffffffffffffffffff168473ffffffffffffffffffffffffffffffffffffffff161480611c1357508373ffffffffffffffffffffffffffffffffffffffff16611bfb846105f9565b73ffffffffffffffffffffffffffffffffffffffff16145b80611c245750611c2381856114d9565b5b91505092915050565b8273ffffffffffffffffffffffffffffffffffffffff16611c4d82610960565b73ffffffffffffffffffffffffffffffffffffffff1614611ca3576040517f08c379a0000000000000000000000000000000000000000000000000000000008152600401611c9a906132e1565b60405180910390fd5b600073ffffffffffffffffffffffffffffffffffffffff168273ffffffffffffffffffffffffffffffffffffffff161415611d13576040517f08c379a0000000000000000000000000000000000000000000000000000000008152600401611d0a90613181565b60405180910390fd5b611d1e8383836120f9565b611d29600082611a96565b6001600460008573ffffffffffffffffffffffffffffffffffffffff1673ffffffffffffffffffffffffffffffffffffffff1681526020019081526020016000206000828254611d79919061357f565b925050819055506001600460008473ffffffffffffffffffffffffffffffffffffffff1673ffffffffffffffffffffffffffffffffffffffff1681526020019081526020016000206000828254611dd091906134f8565b92505081905550816003600083815260200190815260200160002060006101000a81548173ffffffffffffffffffffffffffffffffffffffff021916908373ffffffffffffffffffffffffffffffffffffffff160217905550808273ffffffffffffffffffffffffffffffffffffffff168473ffffffffffffffffffffffffffffffffffffffff167fddf252ad1be2c89b69c2b068fc378daa952ba7f163c4a11628f55a4df523b3ef60405160405180910390a4505050565b611ea38282604051806020016040528060008152506120fe565b5050565b611eb082611a22565b611eef576040517f08c379a0000000000000000000000000000000000000000000000000000000008152600401611ee690613241565b60405180910390fd5b80600760008481526020019081526020016000209080519060200190611f1692919061267e565b505050565b60008060009054906101000a900473ffffffffffffffffffffffffffffffffffffffff169050816000806101000a81548173ffffffffffffffffffffffffffffffffffffffff021916908373ffffffffffffffffffffffffffffffffffffffff1602179055508173ffffffffffffffffffffffffffffffffffffffff168173ffffffffffffffffffffffffffffffffffffffff167f8be0079c531659141344cd1fd0a4f28419497f9722a3daafe3b4186f6b6457e060405160405180910390a35050565b611fea848484611c2d565b611ff684848484612159565b612035576040517f08c379a000000000000000000000000000000000000000000000000000000000815260040161202c90613121565b60405180910390fd5b50505050565b606060405180602001604052806000815250905090565b606061205d82611a22565b61209c576040517f08c379a000000000000000000000000000000000000000000000000000000000815260040161209390613301565b60405180910390fd5b60006120a661203b565b905060008151116120c657604051806020016040528060008152506120f1565b806120d0846122f0565b6040516020016120e1929190612fb0565b6040516020818303038152906040525b915050919050565b505050565b612108838361249d565b6121156000848484612159565b612154576040517f08c379a000000000000000000000000000000000000000000000000000000000815260040161214b90613121565b60405180910390fd5b505050565b600061217a8473ffffffffffffffffffffffffffffffffffffffff1661266b565b156122e3578373ffffffffffffffffffffffffffffffffffffffff1663150b7a026121a3611a8e565b8786866040518563ffffffff1660e01b81526004016121c59493929190612fef565b602060405180830381600087803b1580156121df57600080fd5b505af192505050801561221057506040513d601f19601f8201168201806040525081019061220d9190612aa5565b60015b612293573d8060008114612240576040519150601f19603f3d011682016040523d82523d6000602084013e612245565b606091505b5060008151141561228b576040517f08c379a000000000000000000000000000000000000000000000000000000000815260040161228290613121565b60405180910390fd5b805181602001fd5b63150b7a0260e01b7bffffffffffffffffffffffffffffffffffffffffffffffffffffffff1916817bffffffffffffffffffffffffffffffffffffffffffffffffffffffff1916149150506122e8565b600190505b949350505050565b60606000821415612338576040518060400160405280600181526020017f30000000000000000000000000000000000000000000000000000000000000008152509050612498565b600082905060005b6000821461236a578080612353906136cc565b915050600a82612363919061354e565b9150612340565b60008167ffffffffffffffff8111156123ac577f4e487b7100000000000000000000000000000000000000000000000000000000600052604160045260246000fd5b6040519080825280601f01601f1916602001820160405280156123de5781602001600182028036833780820191505090505b5090505b60008514612491576001826123f7919061357f565b9150600a856124069190613715565b603061241291906134f8565b60f81b81838151811061244e577f4e487b7100000000000000000000000000000000000000000000000000000000600052603260045260246000fd5b60200101907effffffffffffffffffffffffffffffffffffffffffffffffffffffffffffff1916908160001a905350600a8561248a919061354e565b94506123e2565b8093505050505b919050565b600073ffffffffffffffffffffffffffffffffffffffff168273ffffffffffffffffffffffffffffffffffffffff16141561250d576040517f08c379a000000000000000000000000000000000000000000000000000000000815260040161250490613261565b60405180910390fd5b61251681611a22565b15612556576040517f08c379a000000000000000000000000000000000000000000000000000000000815260040161254d90613161565b60405180910390fd5b612562600083836120f9565b6001600460008473ffffffffffffffffffffffffffffffffffffffff1673ffffffffffffffffffffffffffffffffffffffff16815260200190815260200160002060008282546125b291906134f8565b92505081905550816003600083815260200190815260200160002060006101000a81548173ffffffffffffffffffffffffffffffffffffffff021916908373ffffffffffffffffffffffffffffffffffffffff160217905550808273ffffffffffffffffffffffffffffffffffffffff16600073ffffffffffffffffffffffffffffffffffffffff167fddf252ad1be2c89b69c2b068fc378daa952ba7f163c4a11628f55a4df523b3ef60405160405180910390a45050565b600080823b905060008111915050919050565b82805461268a90613669565b90600052602060002090601f0160209004810192826126ac57600085556126f3565b82601f106126c557805160ff19168380011785556126f3565b828001600101855582156126f3579182015b828111156126f25782518255916020019190600101906126d7565b5b5090506127009190612704565b5090565b5b8082111561271d576000816000905550600101612705565b5090565b600061273461272f846133e1565b6133bc565b90508281526020810184848401111561274c57600080fd5b612757848285613627565b509392505050565b600061277261276d84613412565b6133bc565b90508281526020810184848401111561278a57600080fd5b612795848285613627565b509392505050565b6000813590506127ac81613dd0565b92915050565b6000813590506127c181613de7565b92915050565b6000813590506127d681613dfe565b92915050565b6000815190506127eb81613dfe565b92915050565b600082601f83011261280257600080fd5b8135612812848260208601612721565b91505092915050565b600082601f83011261282c57600080fd5b813561283c84826020860161275f565b91505092915050565b60008135905061285481613e15565b92915050565b60006020828403121561286c57600080fd5b600061287a8482850161279d565b91505092915050565b6000806040838503121561289657600080fd5b60006128a48582860161279d565b92505060206128b58582860161279d565b9150509250929050565b6000806000606084860312156128d457600080fd5b60006128e28682870161279d565b93505060206128f38682870161279d565b925050604061290486828701612845565b9150509250925092565b6000806000806080858703121561292457600080fd5b60006129328782880161279d565b94505060206129438782880161279d565b935050604061295487828801612845565b925050606085013567ffffffffffffffff81111561297157600080fd5b61297d878288016127f1565b91505092959194509250565b6000806040838503121561299c57600080fd5b60006129aa8582860161279d565b92505060206129bb858286016127b2565b9150509250929050565b600080600080608085870312156129db57600080fd5b60006129e98782880161279d565b945050602085013567ffffffffffffffff811115612a0657600080fd5b612a128782880161281b565b9350506040612a2387828801612845565b9250506060612a3487828801612845565b91505092959194509250565b60008060408385031215612a5357600080fd5b6000612a618582860161279d565b9250506020612a7285828601612845565b9150509250929050565b600060208284031215612a8e57600080fd5b6000612a9c848285016127c7565b91505092915050565b600060208284031215612ab757600080fd5b6000612ac5848285016127dc565b91505092915050565b600060208284031215612ae057600080fd5b6000612aee84828501612845565b91505092915050565b6000612b038383612b27565b60208301905092915050565b6000612b1b8383612f92565b60208301905092915050565b612b30816135b3565b82525050565b612b3f816135b3565b82525050565b6000612b5082613463565b612b5a81856134a9565b9350612b6583613443565b8060005b83811015612b96578151612b7d8882612af7565b9750612b888361348f565b925050600181019050612b69565b5085935050505092915050565b6000612bae8261346e565b612bb881856134ba565b9350612bc383613453565b8060005b83811015612bf4578151612bdb8882612b0f565b9750612be68361349c565b925050600181019050612bc7565b5085935050505092915050565b612c0a816135c5565b82525050565b6000612c1b82613479565b612c2581856134cb565b9350612c35818560208601613636565b612c3e81613802565b840191505092915050565b6000612c5482613484565b612c5e81856134dc565b9350612c6e818560208601613636565b612c7781613802565b840191505092915050565b6000612c8d82613484565b612c9781856134ed565b9350612ca7818560208601613636565b80840191505092915050565b6000612cc06021836134dc565b9150612ccb82613813565b604082019050919050565b6000612ce36032836134dc565b9150612cee82613862565b604082019050919050565b6000612d066026836134dc565b9150612d11826138b1565b604082019050919050565b6000612d29601c836134dc565b9150612d3482613900565b602082019050919050565b6000612d4c6024836134dc565b9150612d5782613929565b604082019050919050565b6000612d6f6019836134dc565b9150612d7a82613978565b602082019050919050565b6000612d92602c836134dc565b9150612d9d826139a1565b604082019050919050565b6000612db56038836134dc565b9150612dc0826139f0565b604082019050919050565b6000612dd8602a836134dc565b9150612de382613a3f565b604082019050919050565b6000612dfb6029836134dc565b9150612e0682613a8e565b604082019050919050565b6000612e1e602e836134dc565b9150612e2982613add565b604082019050919050565b6000612e416020836134dc565b9150612e4c82613b2c565b602082019050919050565b6000612e646031836134dc565b9150612e6f82613b55565b604082019050919050565b6000612e87602c836134dc565b9150612e9282613ba4565b604082019050919050565b6000612eaa6020836134dc565b9150612eb582613bf3565b602082019050919050565b6000612ecd6029836134dc565b9150612ed882613c1c565b604082019050919050565b6000612ef0602f836134dc565b9150612efb82613c6b565b604082019050919050565b6000612f136021836134dc565b9150612f1e82613cba565b604082019050919050565b6000612f366031836134dc565b9150612f4182613d09565b604082019050919050565b6000612f59602c836134dc565b9150612f6482613d58565b604082019050919050565b6000612f7c601d836134dc565b9150612f8782613da7565b602082019050919050565b612f9b8161361d565b82525050565b612faa8161361d565b82525050565b6000612fbc8285612c82565b9150612fc88284612c82565b91508190509392505050565b6000602082019050612fe96000830184612b36565b92915050565b60006080820190506130046000830187612b36565b6130116020830186612b36565b61301e6040830185612fa1565b81810360608301526130308184612c10565b905095945050505050565b60006080820190506130506000830187612b36565b61305d6020830186612fa1565b61306a6040830185612fa1565b6130776060830184612fa1565b95945050505050565b6000602082019050818103600083015261309a8184612b45565b905092915050565b600060208201905081810360008301526130bc8184612ba3565b905092915050565b60006020820190506130d96000830184612c01565b92915050565b600060208201905081810360008301526130f98184612c49565b905092915050565b6000602082019050818103600083015261311a81612cb3565b9050919050565b6000602082019050818103600083015261313a81612cd6565b9050919050565b6000602082019050818103600083015261315a81612cf9565b9050919050565b6000602082019050818103600083015261317a81612d1c565b9050919050565b6000602082019050818103600083015261319a81612d3f565b9050919050565b600060208201905081810360008301526131ba81612d62565b9050919050565b600060208201905081810360008301526131da81612d85565b9050919050565b600060208201905081810360008301526131fa81612da8565b9050919050565b6000602082019050818103600083015261321a81612dcb565b9050919050565b6000602082019050818103600083015261323a81612dee565b9050919050565b6000602082019050818103600083015261325a81612e11565b9050919050565b6000602082019050818103600083015261327a81612e34565b9050919050565b6000602082019050818103600083015261329a81612e57565b9050919050565b600060208201905081810360008301526132ba81612e7a565b9050919050565b600060208201905081810360008301526132da81612e9d565b9050919050565b600060208201905081810360008301526132fa81612ec0565b9050919050565b6000602082019050818103600083015261331a81612ee3565b9050919050565b6000602082019050818103600083015261333a81612f06565b9050919050565b6000602082019050818103600083015261335a81612f29565b9050919050565b6000602082019050818103600083015261337a81612f4c565b9050919050565b6000602082019050818103600083015261339a81612f6f565b9050919050565b60006020820190506133b66000830184612fa1565b92915050565b60006133c66133d7565b90506133d2828261369b565b919050565b6000604051905090565b600067ffffffffffffffff8211156133fc576133fb6137d3565b5b61340582613802565b9050602081019050919050565b600067ffffffffffffffff82111561342d5761342c6137d3565b5b61343682613802565b9050602081019050919050565b6000819050602082019050919050565b6000819050602082019050919050565b600081519050919050565b600081519050919050565b600081519050919050565b600081519050919050565b6000602082019050919050565b6000602082019050919050565b600082825260208201905092915050565b600082825260208201905092915050565b600082825260208201905092915050565b600082825260208201905092915050565b600081905092915050565b60006135038261361d565b915061350e8361361d565b9250827fffffffffffffffffffffffffffffffffffffffffffffffffffffffffffffffff0382111561354357613542613746565b5b828201905092915050565b60006135598261361d565b91506135648361361d565b92508261357457613573613775565b5b828204905092915050565b600061358a8261361d565b91506135958361361d565b9250828210156135a8576135a7613746565b5b828203905092915050565b60006135be826135fd565b9050919050565b60008115159050919050565b60007fffffffff0000000000000000000000000000000000000000000000000000000082169050919050565b600073ffffffffffffffffffffffffffffffffffffffff82169050919050565b6000819050919050565b82818337600083830152505050565b60005b83811015613654578082015181840152602081019050613639565b83811115613663576000848401525b50505050565b6000600282049050600182168061368157607f821691505b60208210811415613695576136946137a4565b5b50919050565b6136a482613802565b810181811067ffffffffffffffff821117156136c3576136c26137d3565b5b80604052505050565b60006136d78261361d565b91507fffffffffffffffffffffffffffffffffffffffffffffffffffffffffffffffff82141561370a57613709613746565b5b600182019050919050565b60006137208261361d565b915061372b8361361d565b92508261373b5761373a613775565b5b828206905092915050565b7f4e487b7100000000000000000000000000000000000000000000000000000000600052601160045260246000fd5b7f4e487b7100000000000000000000000000000000000000000000000000000000600052601260045260246000fd5b7f4e487b7100000000000000000000000000000000000000000000000000000000600052602260045260246000fd5b7f4e487b7100000000000000000000000000000000000000000000000000000000600052604160045260246000fd5b6000601f19601f8301169050919050565b7f4e6f7420612076616c69642077686974656c697374656420636f6e747261637460008201527f2e00000000000000000000000000000000000000000000000000000000000000602082015250565b7f4552433732313a207472616e7366657220746f206e6f6e20455243373231526560008201527f63656976657220696d706c656d656e7465720000000000000000000000000000602082015250565b7f4f776e61626c653a206e6577206f776e657220697320746865207a65726f206160008201527f6464726573730000000000000000000000000000000000000000000000000000602082015250565b7f4552433732313a20746f6b656e20616c7265616479206d696e74656400000000600082015250565b7f4552433732313a207472616e7366657220746f20746865207a65726f2061646460008201527f7265737300000000000000000000000000000000000000000000000000000000602082015250565b7f4552433732313a20617070726f766520746f2063616c6c657200000000000000600082015250565b7f4552433732313a206f70657261746f7220717565727920666f72206e6f6e657860008201527f697374656e7420746f6b656e0000000000000000000000000000000000000000602082015250565b7f4552433732313a20617070726f76652063616c6c6572206973206e6f74206f7760008201527f6e6572206e6f7220617070726f76656420666f7220616c6c0000000000000000602082015250565b7f4552433732313a2062616c616e636520717565727920666f7220746865207a6560008201527f726f206164647265737300000000000000000000000000000000000000000000602082015250565b7f4552433732313a206f776e657220717565727920666f72206e6f6e657869737460008201527f656e7420746f6b656e0000000000000000000000000000000000000000000000602082015250565b7f45524337323155524953746f726167653a2055524920736574206f66206e6f6e60008201527f6578697374656e7420746f6b656e000000000000000000000000000000000000602082015250565b7f4552433732313a206d696e7420746f20746865207a65726f2061646472657373600082015250565b7f45524337323155524953746f726167653a2055524920717565727920666f722060008201527f6e6f6e6578697374656e7420746f6b656e000000000000000000000000000000602082015250565b7f4552433732313a20617070726f76656420717565727920666f72206e6f6e657860008201527f697374656e7420746f6b656e0000000000000000000000000000000000000000602082015250565b7f4f776e61626c653a2063616c6c6572206973206e6f7420746865206f776e6572600082015250565b7f4552433732313a207472616e73666572206f6620746f6b656e2074686174206960008201527f73206e6f74206f776e0000000000000000000000000000000000000000000000602082015250565b7f4552433732314d657461646174613a2055524920717565727920666f72206e6f60008201527f6e6578697374656e7420746f6b656e0000000000000000000000000000000000602082015250565b7f4552433732313a20617070726f76616c20746f2063757272656e74206f776e6560008201527f7200000000000000000000000000000000000000000000000000000000000000602082015250565b7f4552433732313a207472616e736665722063616c6c6572206973206e6f74206f60008201527f776e6572206e6f7220617070726f766564000000000000000000000000000000602082015250565b7f4f6e6c792077686974656c6973746564206164647265737365732063616e206d60008201527f696e74204e4654726565732e0000000000000000000000000000000000000000602082015250565b7f436f6e747261637420616c72656164792077686974656c69737465642e000000600082015250565b613dd9816135b3565b8114613de457600080fd5b50565b613df0816135c5565b8114613dfb57600080fd5b50565b613e07816135d1565b8114613e1257600080fd5b50565b613e1e8161361d565b8114613e2957600080fd5b5056fea26469706673582212206c97151f75a7cc20de96f3e53d844020bf2a36699a766a9c62ad6b76fcb14f9964736f6c63430008040033",
  "linkReferences": {},
  "deployedLinkReferences": {}
}